{
  "contractName": "BigHeads",
  "abi": [
    {
      "inputs": [],
      "stateMutability": "nonpayable",
      "type": "constructor"
    },
    {
      "anonymous": false,
      "inputs": [
        {
          "indexed": true,
          "internalType": "address",
          "name": "owner",
          "type": "address"
        },
        {
          "indexed": true,
          "internalType": "address",
          "name": "approved",
          "type": "address"
        },
        {
          "indexed": true,
          "internalType": "uint256",
          "name": "tokenId",
          "type": "uint256"
        }
      ],
      "name": "Approval",
      "type": "event"
    },
    {
      "anonymous": false,
      "inputs": [
        {
          "indexed": true,
          "internalType": "address",
          "name": "owner",
          "type": "address"
        },
        {
          "indexed": true,
          "internalType": "address",
          "name": "operator",
          "type": "address"
        },
        {
          "indexed": false,
          "internalType": "bool",
          "name": "approved",
          "type": "bool"
        }
      ],
      "name": "ApprovalForAll",
      "type": "event"
    },
    {
      "anonymous": false,
      "inputs": [
        {
          "indexed": true,
          "internalType": "address",
          "name": "previousOwner",
          "type": "address"
        },
        {
          "indexed": true,
          "internalType": "address",
          "name": "newOwner",
          "type": "address"
        }
      ],
      "name": "OwnershipTransferred",
      "type": "event"
    },
    {
      "anonymous": false,
      "inputs": [
        {
          "indexed": true,
          "internalType": "address",
          "name": "from",
          "type": "address"
        },
        {
          "indexed": true,
          "internalType": "address",
          "name": "to",
          "type": "address"
        },
        {
          "indexed": true,
          "internalType": "uint256",
          "name": "tokenId",
          "type": "uint256"
        }
      ],
      "name": "Transfer",
      "type": "event"
    },
    {
      "inputs": [
        {
          "internalType": "address",
          "name": "to",
          "type": "address"
        },
        {
          "internalType": "uint256",
          "name": "tokenId",
          "type": "uint256"
        }
      ],
      "name": "approve",
      "outputs": [],
      "stateMutability": "nonpayable",
      "type": "function"
    },
    {
      "inputs": [
        {
          "internalType": "address",
          "name": "owner",
          "type": "address"
        }
      ],
      "name": "balanceOf",
      "outputs": [
        {
          "internalType": "uint256",
          "name": "",
          "type": "uint256"
        }
      ],
      "stateMutability": "view",
      "type": "function",
      "constant": true
    },
    {
      "inputs": [
        {
          "internalType": "uint256",
          "name": "tokenId",
          "type": "uint256"
        }
      ],
      "name": "getApproved",
      "outputs": [
        {
          "internalType": "address",
          "name": "",
          "type": "address"
        }
      ],
      "stateMutability": "view",
      "type": "function",
      "constant": true
    },
    {
      "inputs": [
        {
          "internalType": "address",
          "name": "owner",
          "type": "address"
        },
        {
          "internalType": "address",
          "name": "operator",
          "type": "address"
        }
      ],
      "name": "isApprovedForAll",
      "outputs": [
        {
          "internalType": "bool",
          "name": "",
          "type": "bool"
        }
      ],
      "stateMutability": "view",
      "type": "function",
      "constant": true
    },
    {
      "inputs": [],
      "name": "name",
      "outputs": [
        {
          "internalType": "string",
          "name": "",
          "type": "string"
        }
      ],
      "stateMutability": "view",
      "type": "function",
      "constant": true
    },
    {
      "inputs": [],
      "name": "owner",
      "outputs": [
        {
          "internalType": "address",
          "name": "",
          "type": "address"
        }
      ],
      "stateMutability": "view",
      "type": "function",
      "constant": true
    },
    {
      "inputs": [
        {
          "internalType": "uint256",
          "name": "tokenId",
          "type": "uint256"
        }
      ],
      "name": "ownerOf",
      "outputs": [
        {
          "internalType": "address",
          "name": "",
          "type": "address"
        }
      ],
      "stateMutability": "view",
      "type": "function",
      "constant": true
    },
    {
      "inputs": [],
      "name": "renounceOwnership",
      "outputs": [],
      "stateMutability": "nonpayable",
      "type": "function"
    },
    {
      "inputs": [
        {
          "internalType": "address",
          "name": "from",
          "type": "address"
        },
        {
          "internalType": "address",
          "name": "to",
          "type": "address"
        },
        {
          "internalType": "uint256",
          "name": "tokenId",
          "type": "uint256"
        }
      ],
      "name": "safeTransferFrom",
      "outputs": [],
      "stateMutability": "nonpayable",
      "type": "function"
    },
    {
      "inputs": [
        {
          "internalType": "address",
          "name": "from",
          "type": "address"
        },
        {
          "internalType": "address",
          "name": "to",
          "type": "address"
        },
        {
          "internalType": "uint256",
          "name": "tokenId",
          "type": "uint256"
        },
        {
          "internalType": "bytes",
          "name": "data",
          "type": "bytes"
        }
      ],
      "name": "safeTransferFrom",
      "outputs": [],
      "stateMutability": "nonpayable",
      "type": "function"
    },
    {
      "inputs": [
        {
          "internalType": "address",
          "name": "operator",
          "type": "address"
        },
        {
          "internalType": "bool",
          "name": "approved",
          "type": "bool"
        }
      ],
      "name": "setApprovalForAll",
      "outputs": [],
      "stateMutability": "nonpayable",
      "type": "function"
    },
    {
      "inputs": [
        {
          "internalType": "bytes4",
          "name": "interfaceId",
          "type": "bytes4"
        }
      ],
      "name": "supportsInterface",
      "outputs": [
        {
          "internalType": "bool",
          "name": "",
          "type": "bool"
        }
      ],
      "stateMutability": "view",
      "type": "function",
      "constant": true
    },
    {
      "inputs": [],
      "name": "symbol",
      "outputs": [
        {
          "internalType": "string",
          "name": "",
          "type": "string"
        }
      ],
      "stateMutability": "view",
      "type": "function",
      "constant": true
    },
    {
      "inputs": [
        {
          "internalType": "address",
          "name": "from",
          "type": "address"
        },
        {
          "internalType": "address",
          "name": "to",
          "type": "address"
        },
        {
          "internalType": "uint256",
          "name": "tokenId",
          "type": "uint256"
        }
      ],
      "name": "transferFrom",
      "outputs": [],
      "stateMutability": "nonpayable",
      "type": "function"
    },
    {
      "inputs": [
        {
          "internalType": "address",
          "name": "newOwner",
          "type": "address"
        }
      ],
      "name": "transferOwnership",
      "outputs": [],
      "stateMutability": "nonpayable",
      "type": "function"
    },
    {
      "inputs": [
        {
          "internalType": "address",
          "name": "to",
          "type": "address"
        },
        {
          "internalType": "string",
          "name": "uri",
          "type": "string"
        }
      ],
      "name": "safeMint",
      "outputs": [],
      "stateMutability": "nonpayable",
      "type": "function"
    },
    {
      "inputs": [
        {
          "internalType": "uint256",
          "name": "tokenId",
          "type": "uint256"
        }
      ],
      "name": "tokenURI",
      "outputs": [
        {
          "internalType": "string",
          "name": "",
          "type": "string"
        }
      ],
      "stateMutability": "view",
      "type": "function",
      "constant": true
    },
    {
      "inputs": [
        {
          "internalType": "string",
          "name": "uri",
          "type": "string"
        }
      ],
      "name": "isContentOwned",
      "outputs": [
        {
          "internalType": "bool",
          "name": "",
          "type": "bool"
        }
      ],
      "stateMutability": "view",
      "type": "function",
      "constant": true
    },
    {
      "inputs": [
        {
          "internalType": "address",
          "name": "recipient",
          "type": "address"
        },
        {
          "internalType": "string",
          "name": "uri",
          "type": "string"
        }
      ],
      "name": "mint",
      "outputs": [
        {
          "internalType": "bool",
          "name": "",
          "type": "bool"
        },
        {
          "internalType": "uint256",
          "name": "",
          "type": "uint256"
        }
      ],
      "stateMutability": "payable",
      "type": "function",
      "payable": true
    },
    {
      "inputs": [],
      "name": "count",
      "outputs": [
        {
          "internalType": "uint256",
          "name": "",
          "type": "uint256"
        }
      ],
      "stateMutability": "view",
      "type": "function",
      "constant": true
    }
  ],
  "bytecode": "0x60806040523480156200001157600080fd5b506040518060400160405280600881526020017f42696748656164730000000000000000000000000000000000000000000000008152506040518060400160405280600481526020017f4249474800000000000000000000000000000000000000000000000000000000815250816000908051906020019062000096929190620001a6565b508060019080519060200190620000af929190620001a6565b505050620000d2620000c6620000d860201b60201c565b620000e060201b60201c565b620002ba565b600033905090565b6000600760009054906101000a900473ffffffffffffffffffffffffffffffffffffffff16905081600760006101000a81548173ffffffffffffffffffffffffffffffffffffffff021916908373ffffffffffffffffffffffffffffffffffffffff1602179055508173ffffffffffffffffffffffffffffffffffffffff168173ffffffffffffffffffffffffffffffffffffffff167f8be0079c531659141344cd1fd0a4f28419497f9722a3daafe3b4186f6b6457e060405160405180910390a35050565b828054620001b49062000285565b90600052602060002090601f016020900481019282620001d8576000855562000224565b82601f10620001f357805160ff191683800117855562000224565b8280016001018555821562000224579182015b828111156200022357825182559160200191906001019062000206565b5b50905062000233919062000237565b5090565b5b808211156200025257600081600090555060010162000238565b5090565b7f4e487b7100000000000000000000000000000000000000000000000000000000600052602260045260246000fd5b600060028204905060018216806200029e57607f821691505b602082108103620002b457620002b362000256565b5b50919050565b6132c280620002ca6000396000f3fe60806040526004361061011f5760003560e01c80638da5cb5b116100a0578063c87b56dd11610064578063c87b56dd146103e5578063d0def52114610422578063d204c45e14610453578063e985e9c51461047c578063f2fde38b146104b95761011f565b80638da5cb5b1461030057806395d89b411461032b5780639f1cabc614610356578063a22cb46514610393578063b88d4fde146103bc5761011f565b806323b872dd116100e757806323b872dd1461021d57806342842e0e146102465780636352211e1461026f57806370a08231146102ac578063715018a6146102e95761011f565b806301ffc9a71461012457806306661abd1461016157806306fdde031461018c578063081812fc146101b7578063095ea7b3146101f4575b600080fd5b34801561013057600080fd5b5061014b600480360381019061014691906120e8565b6104e2565b6040516101589190612130565b60405180910390f35b34801561016d57600080fd5b506101766105c4565b6040516101839190612164565b60405180910390f35b34801561019857600080fd5b506101a16105d5565b6040516101ae9190612218565b60405180910390f35b3480156101c357600080fd5b506101de60048036038101906101d99190612266565b610667565b6040516101eb91906122d4565b60405180910390f35b34801561020057600080fd5b5061021b6004803603810190610216919061231b565b6106ad565b005b34801561022957600080fd5b50610244600480360381019061023f919061235b565b6107c4565b005b34801561025257600080fd5b5061026d6004803603810190610268919061235b565b610824565b005b34801561027b57600080fd5b5061029660048036038101906102919190612266565b610844565b6040516102a391906122d4565b60405180910390f35b3480156102b857600080fd5b506102d360048036038101906102ce91906123ae565b6108ca565b6040516102e09190612164565b60405180910390f35b3480156102f557600080fd5b506102fe610981565b005b34801561030c57600080fd5b50610315610995565b60405161032291906122d4565b60405180910390f35b34801561033757600080fd5b506103406109bf565b60405161034d9190612218565b60405180910390f35b34801561036257600080fd5b5061037d60048036038101906103789190612510565b610a51565b60405161038a9190612130565b60405180910390f35b34801561039f57600080fd5b506103ba60048036038101906103b59190612585565b610a8c565b005b3480156103c857600080fd5b506103e360048036038101906103de9190612666565b610aa2565b005b3480156103f157600080fd5b5061040c60048036038101906104079190612266565b610b04565b6040516104199190612218565b60405180910390f35b61043c600480360381019061043791906126e9565b610b16565b60405161044a929190612745565b60405180910390f35b34801561045f57600080fd5b5061047a600480360381019061047591906126e9565b610c1f565b005b34801561048857600080fd5b506104a3600480360381019061049e919061276e565b610c58565b6040516104b09190612130565b60405180910390f35b3480156104c557600080fd5b506104e060048036038101906104db91906123ae565b610cec565b005b60007f80ac58cd000000000000000000000000000000000000000000000000000000007bffffffffffffffffffffffffffffffffffffffffffffffffffffffff1916827bffffffffffffffffffffffffffffffffffffffffffffffffffffffff191614806105ad57507f5b5e139f000000000000000000000000000000000000000000000000000000007bffffffffffffffffffffffffffffffffffffffffffffffffffffffff1916827bffffffffffffffffffffffffffffffffffffffffffffffffffffffff1916145b806105bd57506105bc82610d6f565b5b9050919050565b60006105d06008610dd9565b905090565b6060600080546105e4906127dd565b80601f0160208091040260200160405190810160405280929190818152602001828054610610906127dd565b801561065d5780601f106106325761010080835404028352916020019161065d565b820191906000526020600020905b81548152906001019060200180831161064057829003601f168201915b5050505050905090565b600061067282610de7565b6004600083815260200190815260200160002060009054906101000a900473ffffffffffffffffffffffffffffffffffffffff169050919050565b60006106b882610844565b90508073ffffffffffffffffffffffffffffffffffffffff168373ffffffffffffffffffffffffffffffffffffffff1603610728576040517f08c379a000000000000000000000000000000000000000000000000000000000815260040161071f90612880565b60405180910390fd5b8073ffffffffffffffffffffffffffffffffffffffff16610747610e32565b73ffffffffffffffffffffffffffffffffffffffff161480610776575061077581610770610e32565b610c58565b5b6107b5576040517f08c379a00000000000000000000000000000000000000000000000000000000081526004016107ac90612912565b60405180910390fd5b6107bf8383610e3a565b505050565b6107d56107cf610e32565b82610ef3565b610814576040517f08c379a000000000000000000000000000000000000000000000000000000000815260040161080b906129a4565b60405180910390fd5b61081f838383610f88565b505050565b61083f83838360405180602001604052806000815250610aa2565b505050565b60008061085083611281565b9050600073ffffffffffffffffffffffffffffffffffffffff168173ffffffffffffffffffffffffffffffffffffffff16036108c1576040517f08c379a00000000000000000000000000000000000000000000000000000000081526004016108b890612a10565b60405180910390fd5b80915050919050565b60008073ffffffffffffffffffffffffffffffffffffffff168273ffffffffffffffffffffffffffffffffffffffff160361093a576040517f08c379a000000000000000000000000000000000000000000000000000000000815260040161093190612aa2565b60405180910390fd5b600360008373ffffffffffffffffffffffffffffffffffffffff1673ffffffffffffffffffffffffffffffffffffffff168152602001908152602001600020549050919050565b6109896112be565b610993600061133c565b565b6000600760009054906101000a900473ffffffffffffffffffffffffffffffffffffffff16905090565b6060600180546109ce906127dd565b80601f01602080910402602001604051908101604052809291908181526020018280546109fa906127dd565b8015610a475780601f10610a1c57610100808354040283529160200191610a47565b820191906000526020600020905b815481529060010190602001808311610a2a57829003601f168201915b5050505050905090565b60006001600983604051610a659190612afe565b908152602001604051809103902060009054906101000a900460ff1660ff16149050919050565b610a9e610a97610e32565b8383611402565b5050565b610ab3610aad610e32565b83610ef3565b610af2576040517f08c379a0000000000000000000000000000000000000000000000000000000008152600401610ae9906129a4565b60405180910390fd5b610afe8484848461156e565b50505050565b6060610b0f826115ca565b9050919050565b600080610b2283610a51565b15610b62576040517f08c379a0000000000000000000000000000000000000000000000000000000008152600401610b5990612b61565b60405180910390fd5b662386f26fc10000341015610bac576040517f08c379a0000000000000000000000000000000000000000000000000000000008152600401610ba390612bf3565b60405180910390fd5b6000610bb86008610dd9565b9050610bc460086116dc565b6001600985604051610bd69190612afe565b908152602001604051809103902060006101000a81548160ff021916908360ff160217905550610c0685826116f2565b610c10818561190f565b60018192509250509250929050565b610c276112be565b6000610c336008610dd9565b9050610c3f60086116dc565b610c498382611983565b610c53818361190f565b505050565b6000600560008473ffffffffffffffffffffffffffffffffffffffff1673ffffffffffffffffffffffffffffffffffffffff16815260200190815260200160002060008373ffffffffffffffffffffffffffffffffffffffff1673ffffffffffffffffffffffffffffffffffffffff16815260200190815260200160002060009054906101000a900460ff16905092915050565b610cf46112be565b600073ffffffffffffffffffffffffffffffffffffffff168173ffffffffffffffffffffffffffffffffffffffff1603610d63576040517f08c379a0000000000000000000000000000000000000000000000000000000008152600401610d5a90612c85565b60405180910390fd5b610d6c8161133c565b50565b60007f01ffc9a7000000000000000000000000000000000000000000000000000000007bffffffffffffffffffffffffffffffffffffffffffffffffffffffff1916827bffffffffffffffffffffffffffffffffffffffffffffffffffffffff1916149050919050565b600081600001549050919050565b610df0816119a1565b610e2f576040517f08c379a0000000000000000000000000000000000000000000000000000000008152600401610e2690612a10565b60405180910390fd5b50565b600033905090565b816004600083815260200190815260200160002060006101000a81548173ffffffffffffffffffffffffffffffffffffffff021916908373ffffffffffffffffffffffffffffffffffffffff160217905550808273ffffffffffffffffffffffffffffffffffffffff16610ead83610844565b73ffffffffffffffffffffffffffffffffffffffff167f8c5be1e5ebec7d5bd14f71427d1e84f3dd0314c0f7b2291e5b200ac8c7c3b92560405160405180910390a45050565b600080610eff83610844565b90508073ffffffffffffffffffffffffffffffffffffffff168473ffffffffffffffffffffffffffffffffffffffff161480610f415750610f408185610c58565b5b80610f7f57508373ffffffffffffffffffffffffffffffffffffffff16610f6784610667565b73ffffffffffffffffffffffffffffffffffffffff16145b91505092915050565b8273ffffffffffffffffffffffffffffffffffffffff16610fa882610844565b73ffffffffffffffffffffffffffffffffffffffff1614610ffe576040517f08c379a0000000000000000000000000000000000000000000000000000000008152600401610ff590612d17565b60405180910390fd5b600073ffffffffffffffffffffffffffffffffffffffff168273ffffffffffffffffffffffffffffffffffffffff160361106d576040517f08c379a000000000000000000000000000000000000000000000000000000000815260040161106490612da9565b60405180910390fd5b61107a83838360016119e2565b8273ffffffffffffffffffffffffffffffffffffffff1661109a82610844565b73ffffffffffffffffffffffffffffffffffffffff16146110f0576040517f08c379a00000000000000000000000000000000000000000000000000000000081526004016110e790612d17565b60405180910390fd5b6004600082815260200190815260200160002060006101000a81549073ffffffffffffffffffffffffffffffffffffffff02191690556001600360008573ffffffffffffffffffffffffffffffffffffffff1673ffffffffffffffffffffffffffffffffffffffff168152602001908152602001600020600082825403925050819055506001600360008473ffffffffffffffffffffffffffffffffffffffff1673ffffffffffffffffffffffffffffffffffffffff16815260200190815260200160002060008282540192505081905550816002600083815260200190815260200160002060006101000a81548173ffffffffffffffffffffffffffffffffffffffff021916908373ffffffffffffffffffffffffffffffffffffffff160217905550808273ffffffffffffffffffffffffffffffffffffffff168473ffffffffffffffffffffffffffffffffffffffff167fddf252ad1be2c89b69c2b068fc378daa952ba7f163c4a11628f55a4df523b3ef60405160405180910390a461127c8383836001611b08565b505050565b60006002600083815260200190815260200160002060009054906101000a900473ffffffffffffffffffffffffffffffffffffffff169050919050565b6112c6610e32565b73ffffffffffffffffffffffffffffffffffffffff166112e4610995565b73ffffffffffffffffffffffffffffffffffffffff161461133a576040517f08c379a000000000000000000000000000000000000000000000000000000000815260040161133190612e15565b60405180910390fd5b565b6000600760009054906101000a900473ffffffffffffffffffffffffffffffffffffffff16905081600760006101000a81548173ffffffffffffffffffffffffffffffffffffffff021916908373ffffffffffffffffffffffffffffffffffffffff1602179055508173ffffffffffffffffffffffffffffffffffffffff168173ffffffffffffffffffffffffffffffffffffffff167f8be0079c531659141344cd1fd0a4f28419497f9722a3daafe3b4186f6b6457e060405160405180910390a35050565b8173ffffffffffffffffffffffffffffffffffffffff168373ffffffffffffffffffffffffffffffffffffffff1603611470576040517f08c379a000000000000000000000000000000000000000000000000000000000815260040161146790612e81565b60405180910390fd5b80600560008573ffffffffffffffffffffffffffffffffffffffff1673ffffffffffffffffffffffffffffffffffffffff16815260200190815260200160002060008473ffffffffffffffffffffffffffffffffffffffff1673ffffffffffffffffffffffffffffffffffffffff16815260200190815260200160002060006101000a81548160ff0219169083151502179055508173ffffffffffffffffffffffffffffffffffffffff168373ffffffffffffffffffffffffffffffffffffffff167f17307eab39ab6107e8899845ad3d59bd9653f200f220920489ca2b5937696c31836040516115619190612130565b60405180910390a3505050565b611579848484610f88565b61158584848484611b0e565b6115c4576040517f08c379a00000000000000000000000000000000000000000000000000000000081526004016115bb90612f13565b60405180910390fd5b50505050565b60606115d582610de7565b60006006600084815260200190815260200160002080546115f5906127dd565b80601f0160208091040260200160405190810160405280929190818152602001828054611621906127dd565b801561166e5780601f106116435761010080835404028352916020019161166e565b820191906000526020600020905b81548152906001019060200180831161165157829003601f168201915b50505050509050600061167f611c95565b905060008151036116945781925050506116d7565b6000825111156116c95780826040516020016116b1929190612f33565b604051602081830303815290604052925050506116d7565b6116d284611cd2565b925050505b919050565b6001816000016000828254019250508190555050565b600073ffffffffffffffffffffffffffffffffffffffff168273ffffffffffffffffffffffffffffffffffffffff1603611761576040517f08c379a000000000000000000000000000000000000000000000000000000000815260040161175890612fa3565b60405180910390fd5b61176a816119a1565b156117aa576040517f08c379a00000000000000000000000000000000000000000000000000000000081526004016117a19061300f565b60405180910390fd5b6117b86000838360016119e2565b6117c1816119a1565b15611801576040517f08c379a00000000000000000000000000000000000000000000000000000000081526004016117f89061300f565b60405180910390fd5b6001600360008473ffffffffffffffffffffffffffffffffffffffff1673ffffffffffffffffffffffffffffffffffffffff16815260200190815260200160002060008282540192505081905550816002600083815260200190815260200160002060006101000a81548173ffffffffffffffffffffffffffffffffffffffff021916908373ffffffffffffffffffffffffffffffffffffffff160217905550808273ffffffffffffffffffffffffffffffffffffffff16600073ffffffffffffffffffffffffffffffffffffffff167fddf252ad1be2c89b69c2b068fc378daa952ba7f163c4a11628f55a4df523b3ef60405160405180910390a461190b600083836001611b08565b5050565b611918826119a1565b611957576040517f08c379a000000000000000000000000000000000000000000000000000000000815260040161194e906130a1565b60405180910390fd5b8060066000848152602001908152602001600020908051906020019061197e929190611fd9565b505050565b61199d828260405180602001604052806000815250611d3a565b5050565b60008073ffffffffffffffffffffffffffffffffffffffff166119c383611281565b73ffffffffffffffffffffffffffffffffffffffff1614159050919050565b6001811115611b0257600073ffffffffffffffffffffffffffffffffffffffff168473ffffffffffffffffffffffffffffffffffffffff1614611a765780600360008673ffffffffffffffffffffffffffffffffffffffff1673ffffffffffffffffffffffffffffffffffffffff1681526020019081526020016000206000828254611a6e91906130f0565b925050819055505b600073ffffffffffffffffffffffffffffffffffffffff168373ffffffffffffffffffffffffffffffffffffffff1614611b015780600360008573ffffffffffffffffffffffffffffffffffffffff1673ffffffffffffffffffffffffffffffffffffffff1681526020019081526020016000206000828254611af99190613124565b925050819055505b5b50505050565b50505050565b6000611b2f8473ffffffffffffffffffffffffffffffffffffffff16611d95565b15611c88578373ffffffffffffffffffffffffffffffffffffffff1663150b7a02611b58610e32565b8786866040518563ffffffff1660e01b8152600401611b7a94939291906131cf565b6020604051808303816000875af1925050508015611bb657506040513d601f19601f82011682018060405250810190611bb39190613230565b60015b611c38573d8060008114611be6576040519150601f19603f3d011682016040523d82523d6000602084013e611beb565b606091505b506000815103611c30576040517f08c379a0000000000000000000000000000000000000000000000000000000008152600401611c2790612f13565b60405180910390fd5b805181602001fd5b63150b7a0260e01b7bffffffffffffffffffffffffffffffffffffffffffffffffffffffff1916817bffffffffffffffffffffffffffffffffffffffffffffffffffffffff191614915050611c8d565b600190505b949350505050565b60606040518060400160405280600781526020017f697066733a2f2f00000000000000000000000000000000000000000000000000815250905090565b6060611cdd82610de7565b6000611ce7611c95565b90506000815111611d075760405180602001604052806000815250611d32565b80611d1184611db8565b604051602001611d22929190612f33565b6040516020818303038152906040525b915050919050565b611d4483836116f2565b611d516000848484611b0e565b611d90576040517f08c379a0000000000000000000000000000000000000000000000000000000008152600401611d8790612f13565b60405180910390fd5b505050565b6000808273ffffffffffffffffffffffffffffffffffffffff163b119050919050565b606060006001611dc784611e86565b01905060008167ffffffffffffffff811115611de657611de56123e5565b5b6040519080825280601f01601f191660200182016040528015611e185781602001600182028036833780820191505090505b509050600082602001820190505b600115611e7b578080600190039150507f3031323334353637383961626364656600000000000000000000000000000000600a86061a8153600a8581611e6f57611e6e61325d565b5b04945060008503611e26575b819350505050919050565b600080600090507a184f03e93ff9f4daa797ed6e38ed64bf6a1f0100000000000000008310611ee4577a184f03e93ff9f4daa797ed6e38ed64bf6a1f0100000000000000008381611eda57611ed961325d565b5b0492506040810190505b6d04ee2d6d415b85acef81000000008310611f21576d04ee2d6d415b85acef81000000008381611f1757611f1661325d565b5b0492506020810190505b662386f26fc100008310611f5057662386f26fc100008381611f4657611f4561325d565b5b0492506010810190505b6305f5e1008310611f79576305f5e1008381611f6f57611f6e61325d565b5b0492506008810190505b6127108310611f9e576127108381611f9457611f9361325d565b5b0492506004810190505b60648310611fc15760648381611fb757611fb661325d565b5b0492506002810190505b600a8310611fd0576001810190505b80915050919050565b828054611fe5906127dd565b90600052602060002090601f016020900481019282612007576000855561204e565b82601f1061202057805160ff191683800117855561204e565b8280016001018555821561204e579182015b8281111561204d578251825591602001919060010190612032565b5b50905061205b919061205f565b5090565b5b80821115612078576000816000905550600101612060565b5090565b6000604051905090565b600080fd5b600080fd5b60007fffffffff0000000000000000000000000000000000000000000000000000000082169050919050565b6120c581612090565b81146120d057600080fd5b50565b6000813590506120e2816120bc565b92915050565b6000602082840312156120fe576120fd612086565b5b600061210c848285016120d3565b91505092915050565b60008115159050919050565b61212a81612115565b82525050565b60006020820190506121456000830184612121565b92915050565b6000819050919050565b61215e8161214b565b82525050565b60006020820190506121796000830184612155565b92915050565b600081519050919050565b600082825260208201905092915050565b60005b838110156121b957808201518184015260208101905061219e565b838111156121c8576000848401525b50505050565b6000601f19601f8301169050919050565b60006121ea8261217f565b6121f4818561218a565b935061220481856020860161219b565b61220d816121ce565b840191505092915050565b6000602082019050818103600083015261223281846121df565b905092915050565b6122438161214b565b811461224e57600080fd5b50565b6000813590506122608161223a565b92915050565b60006020828403121561227c5761227b612086565b5b600061228a84828501612251565b91505092915050565b600073ffffffffffffffffffffffffffffffffffffffff82169050919050565b60006122be82612293565b9050919050565b6122ce816122b3565b82525050565b60006020820190506122e960008301846122c5565b92915050565b6122f8816122b3565b811461230357600080fd5b50565b600081359050612315816122ef565b92915050565b6000806040838503121561233257612331612086565b5b600061234085828601612306565b925050602061235185828601612251565b9150509250929050565b60008060006060848603121561237457612373612086565b5b600061238286828701612306565b935050602061239386828701612306565b92505060406123a486828701612251565b9150509250925092565b6000602082840312156123c4576123c3612086565b5b60006123d284828501612306565b91505092915050565b600080fd5b600080fd5b7f4e487b7100000000000000000000000000000000000000000000000000000000600052604160045260246000fd5b61241d826121ce565b810181811067ffffffffffffffff8211171561243c5761243b6123e5565b5b80604052505050565b600061244f61207c565b905061245b8282612414565b919050565b600067ffffffffffffffff82111561247b5761247a6123e5565b5b612484826121ce565b9050602081019050919050565b82818337600083830152505050565b60006124b36124ae84612460565b612445565b9050828152602081018484840111156124cf576124ce6123e0565b5b6124da848285612491565b509392505050565b600082601f8301126124f7576124f66123db565b5b81356125078482602086016124a0565b91505092915050565b60006020828403121561252657612525612086565b5b600082013567ffffffffffffffff8111156125445761254361208b565b5b612550848285016124e2565b91505092915050565b61256281612115565b811461256d57600080fd5b50565b60008135905061257f81612559565b92915050565b6000806040838503121561259c5761259b612086565b5b60006125aa85828601612306565b92505060206125bb85828601612570565b9150509250929050565b600067ffffffffffffffff8211156125e0576125df6123e5565b5b6125e9826121ce565b9050602081019050919050565b6000612609612604846125c5565b612445565b905082815260208101848484011115612625576126246123e0565b5b612630848285612491565b509392505050565b600082601f83011261264d5761264c6123db565b5b813561265d8482602086016125f6565b91505092915050565b600080600080608085870312156126805761267f612086565b5b600061268e87828801612306565b945050602061269f87828801612306565b93505060406126b087828801612251565b925050606085013567ffffffffffffffff8111156126d1576126d061208b565b5b6126dd87828801612638565b91505092959194509250565b60008060408385031215612700576126ff612086565b5b600061270e85828601612306565b925050602083013567ffffffffffffffff81111561272f5761272e61208b565b5b61273b858286016124e2565b9150509250929050565b600060408201905061275a6000830185612121565b6127676020830184612155565b9392505050565b6000806040838503121561278557612784612086565b5b600061279385828601612306565b92505060206127a485828601612306565b9150509250929050565b7f4e487b7100000000000000000000000000000000000000000000000000000000600052602260045260246000fd5b600060028204905060018216806127f557607f821691505b602082108103612808576128076127ae565b5b50919050565b7f4552433732313a20617070726f76616c20746f2063757272656e74206f776e6560008201527f7200000000000000000000000000000000000000000000000000000000000000602082015250565b600061286a60218361218a565b91506128758261280e565b604082019050919050565b600060208201905081810360008301526128998161285d565b9050919050565b7f4552433732313a20617070726f76652063616c6c6572206973206e6f7420746f60008201527f6b656e206f776e6572206f7220617070726f76656420666f7220616c6c000000602082015250565b60006128fc603d8361218a565b9150612907826128a0565b604082019050919050565b6000602082019050818103600083015261292b816128ef565b9050919050565b7f4552433732313a2063616c6c6572206973206e6f7420746f6b656e206f776e6560008201527f72206f7220617070726f76656400000000000000000000000000000000000000602082015250565b600061298e602d8361218a565b915061299982612932565b604082019050919050565b600060208201905081810360008301526129bd81612981565b9050919050565b7f4552433732313a20696e76616c696420746f6b656e2049440000000000000000600082015250565b60006129fa60188361218a565b9150612a05826129c4565b602082019050919050565b60006020820190508181036000830152612a29816129ed565b9050919050565b7f4552433732313a2061646472657373207a65726f206973206e6f74206120766160008201527f6c6964206f776e65720000000000000000000000000000000000000000000000602082015250565b6000612a8c60298361218a565b9150612a9782612a30565b604082019050919050565b60006020820190508181036000830152612abb81612a7f565b9050919050565b600081905092915050565b6000612ad88261217f565b612ae28185612ac2565b9350612af281856020860161219b565b80840191505092915050565b6000612b0a8284612acd565b915081905092915050565b7f4e465420616c7265616479206d696e7465642100000000000000000000000000600082015250565b6000612b4b60138361218a565b9150612b5682612b15565b602082019050919050565b60006020820190508181036000830152612b7a81612b3e565b9050919050565b7f4d696e696d756d20616d6f756e74206f6620657468657220746f206d696e743a60008201527f20302e3031000000000000000000000000000000000000000000000000000000602082015250565b6000612bdd60258361218a565b9150612be882612b81565b604082019050919050565b60006020820190508181036000830152612c0c81612bd0565b9050919050565b7f4f776e61626c653a206e6577206f776e657220697320746865207a65726f206160008201527f6464726573730000000000000000000000000000000000000000000000000000602082015250565b6000612c6f60268361218a565b9150612c7a82612c13565b604082019050919050565b60006020820190508181036000830152612c9e81612c62565b9050919050565b7f4552433732313a207472616e736665722066726f6d20696e636f72726563742060008201527f6f776e6572000000000000000000000000000000000000000000000000000000602082015250565b6000612d0160258361218a565b9150612d0c82612ca5565b604082019050919050565b60006020820190508181036000830152612d3081612cf4565b9050919050565b7f4552433732313a207472616e7366657220746f20746865207a65726f2061646460008201527f7265737300000000000000000000000000000000000000000000000000000000602082015250565b6000612d9360248361218a565b9150612d9e82612d37565b604082019050919050565b60006020820190508181036000830152612dc281612d86565b9050919050565b7f4f776e61626c653a2063616c6c6572206973206e6f7420746865206f776e6572600082015250565b6000612dff60208361218a565b9150612e0a82612dc9565b602082019050919050565b60006020820190508181036000830152612e2e81612df2565b9050919050565b7f4552433732313a20617070726f766520746f2063616c6c657200000000000000600082015250565b6000612e6b60198361218a565b9150612e7682612e35565b602082019050919050565b60006020820190508181036000830152612e9a81612e5e565b9050919050565b7f4552433732313a207472616e7366657220746f206e6f6e20455243373231526560008201527f63656976657220696d706c656d656e7465720000000000000000000000000000602082015250565b6000612efd60328361218a565b9150612f0882612ea1565b604082019050919050565b60006020820190508181036000830152612f2c81612ef0565b9050919050565b6000612f3f8285612acd565b9150612f4b8284612acd565b91508190509392505050565b7f4552433732313a206d696e7420746f20746865207a65726f2061646472657373600082015250565b6000612f8d60208361218a565b9150612f9882612f57565b602082019050919050565b60006020820190508181036000830152612fbc81612f80565b9050919050565b7f4552433732313a20746f6b656e20616c7265616479206d696e74656400000000600082015250565b6000612ff9601c8361218a565b915061300482612fc3565b602082019050919050565b6000602082019050818103600083015261302881612fec565b9050919050565b7f45524337323155524953746f726167653a2055524920736574206f66206e6f6e60008201527f6578697374656e7420746f6b656e000000000000000000000000000000000000602082015250565b600061308b602e8361218a565b91506130968261302f565b604082019050919050565b600060208201905081810360008301526130ba8161307e565b9050919050565b7f4e487b7100000000000000000000000000000000000000000000000000000000600052601160045260246000fd5b60006130fb8261214b565b91506131068361214b565b925082821015613119576131186130c1565b5b828203905092915050565b600061312f8261214b565b915061313a8361214b565b9250827fffffffffffffffffffffffffffffffffffffffffffffffffffffffffffffffff0382111561316f5761316e6130c1565b5b828201905092915050565b600081519050919050565b600082825260208201905092915050565b60006131a18261317a565b6131ab8185613185565b93506131bb81856020860161219b565b6131c4816121ce565b840191505092915050565b60006080820190506131e460008301876122c5565b6131f160208301866122c5565b6131fe6040830185612155565b81810360608301526132108184613196565b905095945050505050565b60008151905061322a816120bc565b92915050565b60006020828403121561324657613245612086565b5b60006132548482850161321b565b91505092915050565b7f4e487b7100000000000000000000000000000000000000000000000000000000600052601260045260246000fdfea26469706673582212201ca1510f1711efacaa744ee97e9fa8fe0b0e1c9141544b8c5a09dda2b2ddb03264736f6c634300080e0033",
  "immutableReferences": {},
  "source": "// SPDX-License-Identifier: MIT\npragma solidity ^0.8.4;\n\nimport \"@openzeppelin/contracts/token/ERC721/ERC721.sol\";\nimport \"@openzeppelin/contracts/token/ERC721/extensions/ERC721URIStorage.sol\";\nimport \"@openzeppelin/contracts/access/Ownable.sol\";\nimport \"@openzeppelin/contracts/utils/Counters.sol\";\n\ncontract BigHeads is ERC721, ERC721URIStorage, Ownable {\n    using Counters for Counters.Counter;\n\n    Counters.Counter private _tokenIdCounter;\n\n    mapping(string => uint8) private existingURIs;\n\n    constructor() ERC721(\"BigHeads\", \"BIGH\") {}\n\n    function _baseURI() internal pure override returns (string memory) {\n        return \"ipfs://\";\n    }\n\n    function safeMint(address to, string memory uri) public onlyOwner {\n        uint256 tokenId = _tokenIdCounter.current();\n        _tokenIdCounter.increment();\n        _safeMint(to, tokenId);\n        _setTokenURI(tokenId, uri);\n    }\n\n    // The following functions are overrides required by Solidity.\n\n    // istanbul ignore next\n    function _burn(uint256 tokenId) internal override(ERC721, ERC721URIStorage) {\n        super._burn(tokenId);\n    }\n\n    function tokenURI(uint256 tokenId)\n        public\n        view\n        override(ERC721, ERC721URIStorage)\n        returns (string memory)\n    {\n        return super.tokenURI(tokenId);\n    }\n\n    function isContentOwned(string memory uri) public view returns(bool) {\n        return existingURIs[uri] == 1;\n    }\n\n    function mint(address recipient, string memory uri) public payable returns (bool, uint256) {\n        require(!isContentOwned(uri), \"NFT already minted!\");\n        require(msg.value >= 0.01 ether, \"Minimum amount of ether to mint: 0.01\");\n\n        uint256 newItemId = _tokenIdCounter.current();\n        _tokenIdCounter.increment();\n        existingURIs[uri] = 1; \n\n        _mint(recipient, newItemId);\n        _setTokenURI(newItemId, uri);\n\n        return (true, newItemId);\n    }\n\n    function count() public view returns(uint256) {\n        return _tokenIdCounter.current();\n    }\n}\n",
  "sourcePath": "/Users/davidecallegari/Development/projects/ethereum/bigheads-nft/backend/contracts/BigHeads.sol",
  "compiler": {
    "name": "solc",
    "version": "0.8.14+commit.80d49f37.Emscripten.clang"
  },
  "schemaVersion": "3.4.11",
  "updatedAt": "2023-02-10T06:20:47.070Z",
  "networkType": "ethereum",
  "devdoc": {
    "kind": "dev",
    "methods": {
      "approve(address,uint256)": {
        "details": "See {IERC721-approve}."
      },
      "balanceOf(address)": {
        "details": "See {IERC721-balanceOf}."
      },
      "getApproved(uint256)": {
        "details": "See {IERC721-getApproved}."
      },
      "isApprovedForAll(address,address)": {
        "details": "See {IERC721-isApprovedForAll}."
      },
      "name()": {
        "details": "See {IERC721Metadata-name}."
      },
      "owner()": {
        "details": "Returns the address of the current owner."
      },
      "ownerOf(uint256)": {
        "details": "See {IERC721-ownerOf}."
      },
      "renounceOwnership()": {
        "details": "Leaves the contract without owner. It will not be possible to call `onlyOwner` functions anymore. Can only be called by the current owner. NOTE: Renouncing ownership will leave the contract without an owner, thereby removing any functionality that is only available to the owner."
      },
      "safeTransferFrom(address,address,uint256)": {
        "details": "See {IERC721-safeTransferFrom}."
      },
      "safeTransferFrom(address,address,uint256,bytes)": {
        "details": "See {IERC721-safeTransferFrom}."
      },
      "setApprovalForAll(address,bool)": {
        "details": "See {IERC721-setApprovalForAll}."
      },
      "supportsInterface(bytes4)": {
        "details": "See {IERC165-supportsInterface}."
      },
      "symbol()": {
        "details": "See {IERC721Metadata-symbol}."
      },
      "transferFrom(address,address,uint256)": {
        "details": "See {IERC721-transferFrom}."
      },
      "transferOwnership(address)": {
        "details": "Transfers ownership of the contract to a new account (`newOwner`). Can only be called by the current owner."
      }
    },
    "version": 1
  },
  "userdoc": {
    "kind": "user",
    "methods": {},
    "version": 1
  }
}